S00F00006C6D33356176722E737265638B
S11300000C9434000C9451000C9451000C94510045
S11300100C9451000C9451000C9451000C94510018
S11300200C9451000C9451000C9451000C94510008
S11300300C9451000C9451000C9451000C945100F8
S11300400C9451000C9451000C9451000C945100E8
S11300500C9451000C9451000C9451000C945100D8
S11300600C9451000C94510011241FBECFEFD8E022
S1130070DEBFCDBF11E0A0E0B1E0E4E5F3E002C0F3
S113008005900D92A031B107D9F721E0A0E1B1E0CC
S113009001C01D92A131B207E1F70E94C9000C947E
S11300A0A8010C9400008BB9289829982A9A85E015
S11300B08A95F1F700002A988FE891E00197F1F70B
S11300C000C0000008958BB9289A29982A9A85E0DF
S11300D08A95F1F700002A988FE891E00197F1F7EB
S11300E000C0000008958FEF8AB984B92A988FE37D
S11300F09FE10197F1F700C0000088E30E945300DC
S11301008EE00E94530081E00E9453008FE39FE140
S11301100197F1F700C0000086E00E9453000895A3
S1130120CF93DF9300D000D0CDB7DEB790E89983AA
S113013090EC9A8394E99B8394ED9C83FE01E60FF3
S1130140F11D81509081890F0E9453008FE891E046
S11301500197F1F700C000000F900F900F900F90DF
S1130160DF91CF9108950F931F93CF93FC0180816A
S1130170882359F08F01C0E00E946300CF5FF8012B
S1130180EC0FF11D80818111F7CFCF911F910F9159
S11301900895CF93DF9300D000D01F92CDB7DEB780
S11301A017B883E390E09093C5008093C40080EC7B
S11301B080937C0087E880937A000E9473000AE7AA
S11301C010E00F2EF8E7AF2EB12CF02D0F2EF9E72B
S11301D0CF2ED12CF02D0F2EFDE5EF2EF12CF02D8E
S11301E06894992493F80F2EF0E38F2EF02DF801E4
S11301F0808180648083F801808184FFFCCF8081CA
S113020080618083F5012081F601808130E0382B04
S1130210C901880F991F220F331F220F331F220F8A
S1130220331F820F931FB7010E944B01862F6093E7
S113023010014AE0BE016F5F7F4F90E00E9473019E
S113024061E081E00E94900080E091E00E94B300B0
S113025062E081E00E949000CE0101960E94B3000A
S1130260809110018632A8F085B8FFEF21EE84E07A
S1130270F15020408040E1F700C0000015B89FEF26
S1130280E1EEF4E09150E040F040E1F700C00000FE
S1130290AECF95B8ACCF97FB072E16F4009407D0D9
S11302A077FD09D00E945F0107FC05D03EF49095CC
S11302B081959F4F0895709561957F4F0895AA1B6E
S11302C0BB1B51E107C0AA1FBB1FA617B70710F03D
S11302D0A61BB70B881F991F5A95A9F7809590956F
S11302E0BC01CD010895BB274A3031F4992322F48F
S11302F0BDE2909581959F4F0C947F01BB27FB0134
S11303005527AA27880F991FAA1FA41710F0A41B0A
S113031083955051B9F7A05DAA3308F0A95DA19364
S1130320009779F7B111B1931192CB010C94980114
S1130330DC01FC01672F71917723E1F7329704C048
S11303407C916D9370836291AE17BF07C8F30895D3
S1070350F894FFCF4B
S113035453752074656D70657261747572613A00C9
S9030000FC
