:100000000C945D000C9485000C9485000C94850084
:100010000C9485000C9485000C9485000C9485004C
:100020000C9485000C9485000C9485000C9485003C
:100030000C9485000C9485000C9485000C9485002C
:100040000C9487040C9485000C9455040C942F0494
:100050000C9485000C9485000C9485000C9485000C
:100060000C94D1040C9485000000000800020100EB
:100070000003040700000000000000000000000072
:10008000250028002B0000000000240027002A0083
:10009000040404040404040402020202020203032E
:1000A0000303030301020408102040800102040836
:1000B0001020010204081020F00511241FBECFEF0C
:1000C000D8E0DEBFCDBF11E0A0E0B1E0E6EFF5E1A2
:1000D00002C005900D92A635B107D9F722E0A6E53A
:1000E000B1E001C01D92AD3CB207E1F710E0CDE5F3
:1000F000D0E004C02197FE010E94F30ACC35D1075D
:10010000C9F70E9439060C94F90A0C94000090E09B
:10011000FC01EC55FF4F249180579F4FFC018491C7
:10012000882399F090E0880F991FFC01EA57FF4F50
:10013000A591B491FC01E458FF4F859194918FB73C
:10014000F894EC91E22BEC938FBF089508950895F5
:10015000AF92BF92CF92DF92EF92FF920F931F93D5
:10016000CF93DF936C017B018B01040F151FEB0113
:100170005E01AE18BF08C017D10759F06991D601CA
:10018000ED91FC910190F081E02DC6010995892B3C
:1001900079F7C501DF91CF911F910F91FF90EF90FB
:1001A000DF90CF90BF90AF900895FC01538D448DA8
:1001B000252F30E0842F90E0821B930B541710F012
:1001C000CF96089501970895FC01918D828D98171F
:1001D00061F0A28DAE0FBF2FB11D5D968C91928DF7
:1001E0009F5F9F73928F90E008958FEF9FEF089528
:1001F000FC01918D828D981731F0828DE80FF11DF1
:10020000858D90E008958FEF9FEF0895FC01918D0B
:10021000228D892F90E0805C9F4F821B91098F7304
:100220009927089587E192E00E94060121E0892B39
:1002300009F420E0822F089580E090E0892B29F0D6
:100240000E94120181110C9400000895FC01A48DFC
:10025000A80FB92FB11DA35ABF4F2C91848D90E0E8
:1002600001968F739927848FA689B7892C93A089CB
:10027000B1898C91837080648C93938D848D981355
:1002800006C00288F389E02D80818F7D80830895E8
:10029000EF92FF920F931F93CF93DF93EC0181E0D6
:1002A000888F9B8D8C8D98131AC0E889F98980817D
:1002B00085FF15C09FB7F894EE89FF896083E889B0
:1002C000F98980818370806480839FBF81E090E0A2
:1002D000DF91CF911F910F91FF90EF900895F62E2F
:1002E0000B8D10E00F5F1F4F0F731127E02E8C8DC9
:1002F0008E110CC00FB607FCFACFE889F98980810E
:1003000085FFF5CFCE010E942601F1CFEB8DEC0FDA
:10031000FD2FF11DE35AFF4FF0829FB7F8940B8F2A
:10032000EA89FB8980818062CFCFCF93DF93EC0194
:10033000888D8823B9F0AA89BB89E889F9898C91CD
:1003400085FD03C0808186FD0DC00FB607FCF7CF89
:100350008C9185FFF2CF808185FFEDCFCE010E9489
:100360002601E9CFDF91CF91089590E0FC01E85993
:10037000FF4F2491FC01EC55FF4F3491FC01E057F5
:10038000FF4FE491EE23C9F0222339F0233001F12D
:10039000A8F4213019F1223029F1F0E0EE0FFF1F0F
:1003A000E458FF4FA591B4918FB7F894EC91611187
:1003B00026C030953E233C938FBF08952730A9F087
:1003C0002830C9F0243049F7809180008F7D03C028
:1003D000809180008F7780938000DFCF84B58F7706
:1003E00084BDDBCF84B58F7DFBCF8091B0008F774C
:1003F0008093B000D2CF8091B0008F7DF9CF3E2B9B
:10040000DACF3FB7F8948091040290910502A09151
:100410000602B091070226B5A89B05C02F3F19F030
:100420000196A11DB11D3FBFBA2FA92F982F882774
:10043000BC01CD01620F711D811D911D42E0660F4F
:10044000771F881F991F4A95D1F708958F929F9221
:10045000AF92BF92CF92DF92EF92FF924B015C017D
:100460000E9401026B017C010E9401026C197D094E
:100470008E099F09683E734081059105A8F321E02C
:10048000821A9108A108B10888EEC80E83E0D81E30
:10049000E11CF11C81149104A104B10429F7FF901F
:1004A000EF90DF90CF90BF90AF909F908F90089586
:1004B00085ED8093BC008091BC0084FDFCCF109240
:1004C0000E0208952091B801260F3327331F2132E1
:1004D0003105ECF420910E02FC0190E080E0243024
:1004E00069F082E00895A091B8012191AC014856CD
:1004F0005E4FA40FB52FB11D2C930196861798F36C
:100500008091B801680F6093B80180E0089581E0A0
:1005100008950895E091120280911102E81730F4D5
:10052000F0E0E858FE4F808190E008958FEF9FEF54
:10053000089590911202809111022FEF3FEF9817CA
:1005400048F4E92FF0E0E858FE4F208130E09F5F4B
:1005500090931202C90108958091110290911202A4
:10056000891B990B0895CF92DF92EF92FF920F9320
:100570001F93CF93DF937C01CB018A0120917701F8
:10058000222389F0EB016B01C40ED51ECC15DD05CD
:1005900069F06991D701ED91FC910190F081E02D16
:1005A000C7010995F3CF642F0E946202C801DF9151
:1005B000CF911F910F91FF90EF90DF90CF90089512
:1005C000CF93DF931F92CDB7DEB769832091770178
:1005D0002223F9F020910F02203258F021E030E080
:1005E000FC013383228390E080E00F90DF91CF9174
:1005F000089580911002E82FF0E0E95AFE4F9981AA
:1006000090838F5F8093100280930F0281E090E0CF
:10061000ECCF61E0CE0101960E946202F7CFCF934A
:10062000FC01C48121E020937701C0935601109210
:10063000100210920F028485682B84EB92E00E94D6
:10064000E00290910F02913208F03FC080910E02BB
:100650008111FCCF82E080930E0281E080930D0235
:100660008FEF8093DB011092FD019093FC01A7E5D1
:10067000B1E0ECEDF1E080E098132FC01092FE01A4
:100680008091FE01CC0FC82BC093FE0180910C021B
:10069000813039F510920C028091FE018093BB00ED
:1006A0008091BC0083FDF8CF85EC8093BC008091E5
:1006B0000E028230E1F38091DB018F3F31F08091B7
:1006C000DB01803211F08091DB0110921002109258
:1006D0000F0210927701CF9108952D9121938F5F92
:1006E000CBCF85EEE2CF089590E080E00895FC0145
:1006F00001900020E9F73197AF01481B590BBC016D
:1007000080EC92E00C94A8008F929F92AF92BF92DF
:100710000F931F93CF93DF93CDB7DEB7A1970FB69B
:10072000F894DEBF0FBECDBF19A2423008F44AE0F4
:100730008E010F5D1F4F842E912CB12CA12CA50191
:1007400094010E94D10AE62FB901CA01EA30F4F4FB
:10075000E05DD801EE938D01232B242B252B79F717
:1007600090E080E0109719F0CD010E947703A196E8
:100770000FB6F894DEBF0FBECDBFDF91CF911F91B2
:100780000F91BF90AF909F908F900895E95CE1CF5B
:100790000F931F93CF938C01C62F0E940F036C2FD2
:1007A0006460C8010E940F036C2F6B7FC8010E9418
:1007B0000F0383EC90E00197F1F7CF911F910F9118
:1007C00008950F931F93CF93DF938C01D62FC42FDF
:1007D000607F642B0E94C80380E1D89FB001112480
:1007E0006C2BC801DF91CF911F910F910C94C8031E
:1007F000CF93DF93CDB7DEB728970FB6F894DEBF5F
:100800000FBECDBF98E0E0E0F1E0DE01119601906F
:100810000D929A95E1F79091C802981708F48FEF1E
:1008200090E0880F991F21E030E02C0F3D1F820FD0
:10083000931FFC016081606840E080EC92E02896A4
:100840000FB6F894DEBF0FBECDBFDF91CF910C94F1
:10085000E10341E00E94E10381E090E008951F92EE
:100860000F920FB60F9211242F933F934F935F93E4
:100870006F937F938F939F93AF93BF93EF93FF9368
:1008800087E192E00E942601FF91EF91BF91AF9125
:100890009F918F917F916F915F914F913F912F9198
:1008A0000F900FBE0F901F9018951F920F920FB6CA
:1008B0000F9211242F938F939F93EF93FF93E091C7
:1008C0002702F09128028081E0912D02F0912E0202
:1008D00082FD1BC09081809130028F5F8F732091C9
:1008E0003102821741F0E0913002F0E0E95EFD4F05
:1008F000958F80933002FF91EF919F918F912F916F
:100900000F900FBE0F901F9018958081F4CF1F920B
:100910000F920FB60F9211242F933F938F939F93B3
:10092000AF93BF938091000290910102A0910202C7
:10093000B09103023091FF0123E0230F2D3758F5CA
:100940000196A11DB11D2093FF0180930002909399
:100950000102A0930202B0930302809104029091DD
:100960000502A0910602B09107020196A11DB11DDA
:100970008093040290930502A0930602B0930702AD
:10098000BF91AF919F918F913F912F910F900FBE8B
:100990000F901F90189526E8230F0296A11DB11DF8
:1009A000D2CF1F920F920FB60F9211242F933F9325
:1009B0004F935F936F937F938F939F93AF93BF9367
:1009C000EF93FF938091B900887F803609F44AC085
:1009D000F0F5883209F4A7C018F5803109F49BC0FE
:1009E000B8F4882309F4F9C0883009F494C0FF9161
:1009F000EF91BF91AF919F918F917F916F915F9197
:100A00004F913F912F910F900FBE0F901F9018950F
:100A1000883109F488C0803251F78093DB0114C01B
:100A2000803409F49DC040F48033B9F38833F9F67B
:100A30008093DB0185ECB0C0803509F485C0883532
:100A400009F496C0883499F60E945802D0CF8839AC
:100A500009F48CC038F5883729F050F4883611F045
:100A6000803729F683E080930E021092DA0157C096
:100A7000883809F47BC0803919F0803809F0B7CF85
:100A80008091DA01803208F071C0E091DA0181E0F2
:100A90008E0F8093DA018091BB00F0E0E654FE4FA8
:100AA00080833DC0803B39F0E0F4803A09F479C09E
:100AB000883A09F09CCF84E080930E021092B9012D
:100AC0001092B801E0910A02F0910B020995809111
:100AD000B80181110FC081E08093B8011092980194
:100AE00009C0803C09F4A6CF883C09F4A3CF883B19
:100AF00009F07DCFE091B90181E08E0F8093B901BB
:100B0000F0E0E856FE4F80818093BB009091B901E0
:100B10008091B80129C08091FE018093BB0085ECD3
:100B20008093BC0064CF9091FD018091FC019817E7
:100B300058F5E091FD0181E08E0F8093FD01F0E01A
:100B4000E452FE4F8081E9CFE091FD0181E08E0FFC
:100B50008093FD018091BB00F0E0E452FE4F808362
:100B60009091FD018091FC019817C8F285E8D8CFDB
:100B7000E091FD0181E08E0F8093FD018091BB002B
:100B8000F0E0E452FE4F808380910D0281115CCF32
:100B900081E080930C0284EA8093BC0010920E02E4
:100BA00026CF85EC8093BC0010920E028091DA0172
:100BB000803230F4E091DA01F0E0E654FE4F10822A
:100BC0006091DA0170E0E0910802F09109028AEB8D
:100BD00091E009951092DA010ACF1092DB0134CF2F
:100BE000E7E1F2E01382128288EE93E0A0E0B0E049
:100BF00084839583A683B7832CE031E031832083FF
:100C000025EC30E03587248724EC30E037872687D1
:100C100020EC30E0318B208B21EC30E0338B228BC9
:100C200022EC30E0358B248B26EC30E0378B268BA2
:100C3000118E128E138E148EE4EBF2E01382128268
:100C400084839583A683B7838EE191E0918380832B
:100C5000E0ECF2E01382128280E391E091838083E2
:100C6000118687E2848380E1828782E0838714860D
:100C70000895789484B5826084BD84B5816084BD14
:100C800085B5826085BD85B5816085BD80916E002A
:100C9000816080936E00109281008091810082605B
:100CA0008093810080918100816080938100809198
:100CB00080008160809380008091B1008460809387
:100CC000B1008091B00081608093B00080917A0083
:100CD000846080937A0080917A00826080937A00A9
:100CE00080917A00816080937A0080917A00806898
:100CF00080937A001092C100E0912702F0912802BF
:100D000082E08083E0912302F09124021082E0913E
:100D10002502F09126028FEC808310922F02E09141
:100D20002B02F0912C0286E08083E0912902F09161
:100D30002A02808180618083E0912902F0912A0259
:100D4000808188608083E0912902F0912A0280816D
:100D500080688083E0912902F0912A0280818F7D52
:100D600080831092120210921102109210021092BF
:100D70000F0210920E0281E080930D0210920C027D
:100D800061E082E10E94B50161E083E10E94B5016A
:100D90008091B9008E7F8093B9008091B9008D7FDA
:100DA0008093B90088E48093B80085E48093BC0008
:100DB00086EA90E090930B0280930A0287EA90E023
:100DC00090930902809308021092C5028091CB0291
:100DD000823018F098E09093C5028093C80262E3D5
:100DE00070E080E090E00E9426026091CC0280ECEE
:100DF00092E00E940F0368EE73E080E090E00E94B2
:100E0000260260E380EC92E00E94C803CBE4D6E4C3
:100E1000CE010197F1F760E380EC92E00E94C803F5
:100E20002197F1F760E380EC92E00E94C80383E52C
:100E300092E00197F1F760E280EC92E00E94C80333
:100E40006091C502606240E080EC92E00E94E103A4
:100E500084E08093C60240E06CE080EC92E00E9467
:100E6000E10340E061E080EC92E00E94E1038BE36B
:100E70009FE10197F1F78091C902882319F080E082
:100E80000E94F80382E08093C70240E066E080ECB5
:100E900092E00E94E10340E062E080EC92E00E9478
:100EA000E1038BE39FE10197F1F788E08093CC02A7
:100EB00060E080EC92E00E940F0384E00E948700D3
:100EC00085E00E94870080E10E94870010E4C0E076
:100ED000D0E0109213021092140210921502109298
:100EE000160210937C0080917A00806480937A00CF
:100EF00080917A0086FDFCCF809178006091790026
:100F0000762F682F072E000C880B990B0E94AA09D8
:100F100020E030E44CE955E40E945F0A20E030EC28
:100F20004FE754E40E94070920E030E040E251E43A
:100F30000E9407092091130230911402409115027A
:100F4000509116020E9496086B017C01C092130218
:100F5000D0921402E0921502F092160264E670E05C
:100F600080E090E00E94260220E030E048E152E478
:100F7000C701B6010E94020987FF0CC061E084E04E
:100F80000E94B50160E085E00E94B50160E080E16B
:100F90000E94B50120E030E048E152E4C701B6010B
:100FA0000E945A0A87FD1CC060E084E00E94B501DF
:100FB00061E085E00E94B50161E080E10E94B50139
:100FC00064E670E080E090E00E94260260E080E14C
:100FD0000E94B50168EE73E080E090E00E94260276
:100FE00080E00E94F80388E391E00E94770381E0AB
:100FF0000E94F803C0901302D0901402E0901502F2
:10100000F0901602A7019601C701B6010E94CC0A12
:10101000882399F086E491E00E94770382E591E0CD
:101020000E947703209709F454CF0E94120188236D
:1010300009F44FCF0E9400004CCF46015701E894BD
:10104000B7F82FEF3FEF4FE75FE7C501B4010E940C
:10105000CC0A81110DC02FEF3FEF4FE75FE7C501CD
:10106000B4010E94020918161CF48AE491E0D4CF5E
:101070002FEF3FEF4FE75FE4C701B6010E945A0A26
:1010800018161CF48EE491E0C7CF2FEF3FEF4FE727
:101090005FECC701B6010E94020987FDF3CF20E093
:1010A00030E0A901C701B6010E94020987FF0AC00A
:1010B00041E06DE280EC92E00E94E103F7FAF094E7
:1010C000F7F8F0942DEC3CEC4CE45DE3C701B6017D
:1010D0000E9496084B015C010E9479096B017C011A
:1010E0000E94A8099B01AC01C501B4010E949508AA
:1010F0004B015C014AE0C701B6010E94840341E054
:101100006EE280EC92E00E94E10320E030E040E2F9
:1011100051E4C501B4010E945F0A0E94790990E080
:1011200080E04AE00E94840379CF5058BB27AA2769
:101130000E94AD080C94200A0E94120A38F00E9406
:10114000190A20F039F49F3F19F426F40C940F0A81
:101150000EF4E095E7FB0C94090AE92F0E94310A8E
:1011600058F3BA17620773078407950720F079F4DC
:10117000A6F50C94530A0EF4E0950B2EBA2FA02D71
:101180000B01B90190010C01CA01A0011124FF2734
:10119000591B99F0593F50F4503E68F11A16F0402F
:1011A000A22F232F342F4427585FF3CF469537952E
:1011B0002795A795F0405395C9F77EF41F16BA0BF3
:1011C000620B730B840BBAF09150A1F0FF0FBB1FA1
:1011D000661F771F881FC2F70EC0BA0F621F731FEA
:1011E000841F48F4879577956795B795F7959E3F47
:1011F00008F0B0CF9395880F08F09927EE0F9795D8
:10120000879508950E94E50908F481E008950E94F9
:101210001B090C94200A0E94190A58F00E94120A15
:1012200040F029F45F3F29F00C94090A51110C9405
:10123000540A0C940F0A0E94310A68F39923B1F3FF
:10124000552391F3951B550BBB27AA2762177307EC
:10125000840738F09F5F5F4F220F331F441FAA1F80
:10126000A9F335D00E2E3AF0E0E832D0915050403C
:10127000E695001CCAF72BD0FE2F29D0660F771FEA
:10128000881FBB1F261737074807AB07B0E809F0D0
:10129000BB0B802DBF01FF2793585F4F3AF09E3F55
:1012A000510578F00C94090A0C94540A5F3FE4F35A
:1012B000983ED4F3869577956795B795F7959F5F98
:1012C000C9F7880F911D9695879597F90895E1E0E4
:1012D000660F771F881FBB1F621773078407BA0743
:1012E00020F0621B730B840BBA0BEE1F88F7E0959E
:1012F00008950E94390A88F09F5798F0B92F9927CE
:10130000B751B0F0E1F0660F771F881F991F1AF0F0
:10131000BA95C9F714C0B13091F00E94530AB1E0F8
:1013200008950C94530A672F782F8827B85F39F0F7
:10133000B93FCCF3869577956795B395D9F73EF489
:1013400090958095709561957F4F8F4F9F4F089531
:10135000E89409C097FB3EF490958095709561954F
:101360007F4F8F4F9F4F9923A9F0F92F96E9BB2705
:101370009395F695879577956795B795F111F8CF81
:10138000FAF4BB0F11F460FF1BC06F5F7F4F8F4FEC
:101390009F4F16C0882311F096E911C0772321F0E2
:1013A0009EE8872F762F05C0662371F096E8862F7A
:1013B00070E060E02AF09A95660F771F881FDAF7D1
:1013C000880F9695879597F90895990F0008550FFE
:1013D000AA0BE0E8FEEF16161706E807F907C0F0BB
:1013E00012161306E407F50798F0621B730B840BC3
:1013F000950B39F40A2661F0232B242B252B21F49D
:1014000008950A2609F4A140A6958FEF811D811D3C
:10141000089597F99F6780E870E060E008959FEF76
:1014200080EC089500240A9416161706180609067B
:10143000089500240A94121613061406050608954A
:10144000092E0394000C11F4882352F0BB0F40F4D2
:10145000BF2B11F460FF04C06F5F7F4F8F4F9F4F12
:10146000089557FD9058440F551F59F05F3F71F094
:101470004795880F97FB991F61F09F3F79F08795FB
:101480000895121613061406551FF2CF4695F1DF84
:1014900008C0161617061806991FF1CF8695710514
:1014A000610508940895E894BB2766277727CB0148
:1014B00097F908950E94E50908F48FEF08950E94B6
:1014C000720A0C94200A0E94120A38F00E94190A2B
:1014D00020F0952311F00C94090A0C940F0A1124A2
:1014E0000C94540A0E94310A70F3959FC1F3950F32
:1014F00050E0551F629FF001729FBB27F00DB11D98
:10150000639FAA27F00DB11DAA1F649F6627B00D27
:10151000A11D661F829F2227B00DA11D621F739F10
:10152000B00DA11D621F839FA00D611D221F749F1E
:101530003327A00D611D231F849F600D211D822F65
:10154000762F6A2F11249F5750409AF0F1F088238C
:101550004AF0EE0FFF1FBB1F661F771F881F9150B9
:101560005040A9F79E3F510580F00C94090A0C9455
:10157000540A5F3FE4F3983ED4F3869577956795D8
:10158000B795F795E7959F5FC1F7FE2B880F911DE3
:101590009695879597F908950E94E509880B990B10
:1015A0000895A1E21A2EAA1BBB1BFD010DC0AA1FA4
:1015B000BB1FEE1FFF1FA217B307E407F50720F0BC
:1015C000A21BB30BE40BF50B661F771F881F991F37
:1015D0001A9469F760957095809590959B01AC0180
:1015E000BD01CF010895EE0FFF1F0590F491E02D8E
:0615F0000994F894FFCFFE
:1015F6000000400014005400000000004801A8004C
:10160600D50095010601E400F80000000000E002A4
:10161600B30274038902AC0299028A020000000038
:101626002904A8007403730354656D7065726174B0
:101636007572613A20006E616E00696E66006F76A3
:06164600660020430000D5
:00000001FF
