:100000000C945D000C9485000C9485000C94850084
:100010000C9485000C9485000C9485000C9485004C
:100020000C9485000C9485000C9485000C9485003C
:100030000C9485000C9485000C9485000C9485002C
:100040000C9473050C9485000C9441050C941B05CD
:100050000C9485000C9485000C9485000C9485000C
:100060000C94BD050C9485000000000024002700BE
:100070002A0000000000250028002B0004040404CE
:100080000404040402020202020203030303030342
:10009000010204081020408001020408102001021F
:1000A00004081020000000080002010000030407FB
:1000B0000000000000000000DC0611241FBECFEF8E
:1000C000D8E0DEBFCDBF11E0A0E0B1E0E6E6F7E1A9
:1000D00002C005900D92A637B107D9F722E0A6E736
:1000E000B1E001C01D92A73FB207E1F710E0CDE5F6
:1000F000D0E004C02197FE010E94AB0BCC35D107A4
:10010000C9F70E9425070C94B10B0C94000090E0F5
:10011000FC01EC55FF4F2491FC01E057FF4F349157
:10012000FC01E458FF4FE491EE23B1F0222339F0B3
:100130002330E9F090F4213001F1223011F1F0E0A8
:10014000EE0FFF1FEE58FF4FA591B4918FB7F894B3
:10015000EC913E2B3C938FBF08952730A9F02830B7
:10016000C9F0243061F7809180008F7D03C08091B9
:1001700080008F7780938000E2CF84B58F7784BD35
:10018000DECF84B58F7DFBCF8091B0008F778093D9
:10019000B000D5CF8091B0008F7DF9CF8091000164
:1001A00020E4829FC001112480937C0080917A001A
:1001B000806480937A0080917A0086FDFCCF8091E4
:1001C000780090917900089508950895AF92BF92B4
:1001D000CF92DF92EF92FF920F931F93CF93DF9313
:1001E0006C017B018B01040F151FEB015E01AE1842
:1001F000BF08C017D10759F06991D601ED91FC9164
:100200000190F081E02DC6010995892B79F7C50190
:10021000DF91CF911F910F91FF90EF90DF90CF90E2
:10022000BF90AF900895FC01538D448D252F30E091
:10023000842F90E0821B930B541710F0CF960895F3
:1002400001970895FC01918D828D981761F0A28D20
:10025000AE0FBF2FB11D5D968C91928D9F5F9F73E6
:10026000928F90E008958FEF9FEF0895FC01918D9C
:10027000828D981731F0828DE80FF11D858D90E009
:1002800008958FEF9FEF0895FC01918D228D892FA6
:1002900090E0805C9F4F821B91098F73992708958E
:1002A00081E492E00E94440121E0892B09F420E0DE
:1002B000822F089580E090E0892B29F00E94500160
:1002C00081110C9400000895FC01A48DA80FB92F92
:1002D000B11DA35ABF4F2C91848D90E001968F736E
:1002E0009927848FA689B7892C93A089B1898C918D
:1002F000837080648C93938D848D981306C00288DC
:10030000F389E02D80818F7D80830895EF92FF92A5
:100310000F931F93CF93DF93EC0181E0888F9B8D28
:100320008C8D98131AC0E889F989808185FF15C0E2
:100330009FB7F894EE89FF896083E889F989808105
:100340008370806480839FBF81E090E0DF91CF91D4
:100350001F910F91FF90EF900895F62E0B8D10E0F6
:100360000F5F1F4F0F731127E02E8C8D8E110CC065
:100370000FB607FCFACFE889F989808185FFF5CFB0
:10038000CE010E946401F1CFEB8DEC0FFD2FF11D2A
:10039000E35AFF4FF0829FB7F8940B8FEA89FB89ED
:1003A00080818062CFCFCF93DF93EC01888D88234B
:1003B000B9F0AA89BB89E889F9898C9185FD03C0C8
:1003C000808186FD0DC00FB607FCF7CF8C9185FFAD
:1003D000F2CF808185FFEDCFCE010E946401E9CF8D
:1003E000DF91CF9108953FB7F894809124029091C6
:1003F0002502A0912602B091270226B5A89B05C030
:100400002F3F19F00196A11DB11D3FBFBA2FA92F93
:10041000982F8827BC01CD01620F711D811D911D90
:1004200042E0660F771F881F991F4A95D1F70895FC
:100430008F929F92AF92BF92CF92DF92EF92FF92F4
:100440004B015C010E94F3016B017C010E94F301EE
:100450006C197D098E099F09683E734081059105DD
:10046000A8F321E0821A9108A108B10888EEC80E0D
:1004700083E0D81EE11CF11C81149104A104B10495
:1004800029F7FF90EF90DF90CF90BF90AF909F90B3
:100490008F90089585ED8093BC008091BC0084FD11
:1004A000FCCF10922E0208952091D801260F3327F9
:1004B000331F21323105ECF420912E02FC0190E033
:1004C00080E0243069F082E00895A091D801219164
:1004D000AC0148545E4FA40FB52FB11D2C9301966B
:1004E000861798F38091D801680F6093D80180E057
:1004F000089581E008950895E091320280913102DB
:10050000E81730F4F0E0E856FE4F808190E008955F
:100510008FEF9FEF089590913202809131022FEF7B
:100520003FEF981748F4E92FF0E0E856FE4F20819E
:1005300030E09F5F90933202C901089580913102AB
:1005400090913202891B990B0895CF92DF92EF921E
:10055000FF920F931F93CF93DF937C01CB018A010E
:1005600020919701222389F0EB016B01C40ED51E67
:10057000CC15DD0569F06991D701ED91FC910190F1
:10058000F081E02DC7010995F3CF642F0E9454023A
:10059000C801DF91CF911F910F91FF90EF90DF90F5
:1005A000CF900895CF93DF931F92CDB7DEB76983C5
:1005B000209197012223F9F020912F02203258F048
:1005C00021E030E0FC013383228390E080E00F9053
:1005D000DF91CF91089580913002E82FF0E0E95843
:1005E000FE4F998190838F5F8093300280932F021A
:1005F00081E090E0ECCF61E0CE0101960E945402D0
:10060000F7CFCF93FC01C48121E020939701C093E1
:1006100076011092300210922F028485682B8EEDA5
:1006200092E00E94D20290912F02913208F03FC0D6
:1006300080912E028111FCCF82E080932E0281E016
:1006400080932D028FEF8093FB0110921D029093F7
:100650001C02A7E7B1E0ECEFF1E080E098132FC0B7
:1006600010921E0280911E02CC0FC82BC0931E0256
:1006700080912C02813039F510922C0280911E025B
:100680008093BB008091BC0083FDF8CF85EC809304
:10069000BC0080912E028230E1F38091FB018F3FFC
:1006A00031F08091FB01803211F08091FB011092BA
:1006B000300210922F0210929701CF9108952D9140
:1006C00021938F5FCBCF85EEE2CF089590E080E05D
:1006D00008950F931F93CF938C01C62F0E9401039F
:1006E0006C2F6460C8010E9401036C2F6B7FC801EE
:1006F0000E94010383EC90E00197F1F7CF911F91E5
:100700000F9108950F931F93CF93DF938C01D62FF2
:10071000C42F607F642B0E94690380E1D89FB001E1
:1007200011246C2BC801DF91CF911F910F910C9474
:100730006903CF93DF93CDB7DEB728970FB6F89450
:10074000DEBF0FBECDBF98E0E1E0F1E0DE01119623
:1007500001900D929A95E1F79091F202961708F4A4
:100760006FEF262F30E0220F331F41E050E04C0F97
:100770005D1F240F351FF9016081680F606840E03C
:100780008AEE92E028960FB6F894DEBF0FBECDBF7A
:10079000DF91CF910C94820341E00E94820381E0BB
:1007A00090E00895FB0101900020E9F73197AF0137
:1007B000461B570BDC01ED91FC910280F381E02D8B
:1007C00009948F929F92AF92BF92EF92FF920F93F4
:1007D0001F93CF93DF93CDB7DEB7A1970FB6F894F1
:1007E000DEBF0FBECDBF7C01FA01CB0119A22230C2
:1007F00008F42AE08E010F5D1F4F822E912CB12C40
:10080000A12CBF01A50194010E94890BF901CA0125
:100810006A300CF5605DD8016E938D01232B242B7B
:10082000252B79F790E080E0109721F0BD01C701FA
:100830000E94D203A1960FB6F894DEBF0FBECDBFC3
:10084000DF91CF911F910F91FF90EF90BF90AF90EC
:100850009F908F900895695CDECF2F923F924F92C8
:100860005F926F927F928F929F92AF92BF92CF9240
:10087000DF92EF92FF921F93CF93DF93EC016A0117
:100880007B01722EAB019601CB01B6010E94840B55
:1008900069E371E0811126C046015701E894B7F879
:1008A0002FEF3FEF4FE75FE7C501B4010E94840BD4
:1008B00081110CC02FEF3FEF4FE75FE7C501B40197
:1008C0000E94BA096DE371E0181664F02FEF3FEF54
:1008D0004FE75FE4C701B6010E94120B1816B4F48B
:1008E00061E471E0CE01DF91CF911F91FF90EF9015
:1008F000DF90CF90BF90AF909F908F907F906F9040
:100900005F904F903F902F900C94D2032FEF3FEFCA
:100910004FE75FECC701B6010E94BA0987FDE0CF3F
:1009200020E030E0A901C701B6010E94BA09312CCC
:10093000212C87FF0DC0E881F9810190F081E02D25
:100940006DE2CE0109951C01F7FAF094F7F8F094E6
:1009500010E060E070E080E09FE3711641F020E07D
:1009600030E040E251E40E94BF091F5FF6CFA701CB
:1009700096010E944E092B013C010E94310A4B0155
:100980005C012AE0BC01A401CE010E94E1037C01CC
:10099000E20CF31C1123E1F1C501B4010E94600ACD
:1009A0009B01AC01C301B2010E944D094B015C01E6
:1009B000E881F9810190F081E02D6EE2CE01099588
:1009C000E80EF91E115020F120E030E040E251E441
:1009D000C501B4010E94170B2B013C010E94310A92
:1009E0004B01B12CA12C2AE0B501A401CE010E943B
:1009F000E103E80EF91EC501B4010E94600A9B01E3
:100A0000AC01C301B2010E944D094B015C01DACF78
:100A1000C701DF91CF911F91FF90EF90DF90CF90B2
:100A2000BF90AF909F908F907F906F905F904F900E
:100A30003F902F9008951F920F920FB60F9211249E
:100A40002F933F934F935F936F937F938F939F93D6
:100A5000AF93BF93EF93FF9381E492E00E94640110
:100A6000FF91EF91BF91AF919F918F917F916F9186
:100A70005F914F913F912F910F900FBE0F901F905C
:100A800018951F920F920FB60F9211242F938F93E8
:100A90009F93EF93FF93E0915102F0915202808176
:100AA000E0915702F091580282FD1BC09081809125
:100AB0005A028F5F8F7320915B02821741F0E091A1
:100AC0005A02F0E0EF5BFD4F958F80935A02FF9141
:100AD000EF919F918F912F910F900FBE0F901F90CC
:100AE00018958081F4CF1F920F920FB60F921124A8
:100AF0002F933F938F939F93AF93BF938091200247
:100B000090912102A0912202B091230230911F0204
:100B100023E0230F2D3758F50196A11DB11D209319
:100B20001F028093200290932102A0932202B0938F
:100B300023028091240290912502A0912602B09177
:100B400027020196A11DB11D8093240290932502D6
:100B5000A0932602B0932702BF91AF919F918F91EE
:100B60003F912F910F900FBE0F901F90189526E880
:100B7000230F0296A11DB11DD2CF1F920F920FB667
:100B80000F9211242F933F934F935F936F937F9313
:100B90008F939F93AF93BF93EF93FF938091B9008F
:100BA000887F803609F44AC0F0F5883209F4A7C07E
:100BB00018F5803109F49BC0B8F4882309F4F9C012
:100BC000883009F494C0FF91EF91BF91AF919F914C
:100BD0008F917F916F915F914F913F912F910F90E6
:100BE0000FBE0F901F901895883109F488C080328D
:100BF00051F78093FB0114C0803409F49DC040F488
:100C00008033B9F38833F9F68093FB0185ECB0C0EB
:100C1000803509F485C0883509F496C0883499F682
:100C20000E944A02D0CF883909F48CC038F5883741
:100C300029F050F4883611F0803729F683E080934C
:100C40002E021092FA0157C0883809F47BC080390F
:100C500019F0803809F0B7CF8091FA01803208F09E
:100C600071C0E091FA0181E08E0F8093FA018091CA
:100C7000BB00F0E0E652FE4F80833DC0803B39F080
:100C8000E0F4803A09F479C0883A09F09CCF84E016
:100C900080932E021092D9011092D801E0912A027D
:100CA000F0912B0209958091D80181110FC081E04C
:100CB0008093D8011092B80109C0803C09F4A6CFF6
:100CC000883C09F4A3CF883B09F07DCFE091D9019E
:100CD00081E08E0F8093D901F0E0E854FE4F8081CF
:100CE0008093BB009091D9018091D80129C0809157
:100CF0001E028093BB0085EC8093BC0064CF909172
:100D00001D0280911C02981758F5E0911D0281E0A8
:100D10008E0F80931D02F0E0E450FE4F8081E9CFFA
:100D2000E0911D0281E08E0F80931D028091BB0037
:100D3000F0E0E450FE4F808390911D0280911C02F0
:100D40009817C8F285E8D8CFE0911D0281E08E0F98
:100D500080931D028091BB00F0E0E450FE4F808341
:100D600080912D0281115CCF81E080932C0284EA76
:100D70008093BC0010922E0226CF85EC8093BC009D
:100D800010922E028091FA01803230F4E091FA0143
:100D9000F0E0E652FE4F10826091FA0170E0E091BF
:100DA0002802F09129028AED91E009951092FA014A
:100DB0000ACF1092FB0134CFE1E4F2E013821282F9
:100DC00088EE93E0A0E0B0E084839583A683B783A8
:100DD0002DE031E03183208325EC30E03587248716
:100DE00024EC30E03787268720EC30E0318B208BF5
:100DF00021EC30E0338B228B22EC30E0358B248BDE
:100E000026EC30E0378B268B118E128E138E148ECB
:100E1000EEEDF2E01382128284839583A683B7837A
:100E20008FE191E091838083EAEEF2E013821282F7
:100E300081E391E091838083118687E2848384E15A
:100E4000828784E0838714860895789484B58260CD
:100E500084BD84B5816084BD85B5826085BD85B55E
:100E6000816085BD80916E00816080936E001092DC
:100E70008100809181008260809381008091810057
:100E800081608093810080918000816080938000E8
:100E90008091B10084608093B1008091B000816046
:100EA0008093B00080917A00846080937A00809172
:100EB0007A00826080937A0080917A0081608093CA
:100EC0007A0080917A00806880937A001092C10045
:100ED000EDE9F0E02491E9E8F0E08491882399F0CD
:100EE00090E0880F991FFC01E859FF4FA591B4913C
:100EF000FC01EE58FF4F859194918FB7F894EC91D7
:100F0000E22BEC938FBF8DE00E948700E0915102AD
:100F1000F091520282E08083E0914D02F0914E0206
:100F20001082E0914F02F09150028FEC808310927A
:100F30005902E0915502F091560286E08083E091DB
:100F40005302F0915402808180618083E0915302CA
:100F5000F0915402808188608083E0915302F09187
:100F60005402808180688083E0915302F0915402A2
:100F700080818F7D808383E0809300011092320214
:100F8000109231021092300210922F0210922E0213
:100F900081E080932D0210922C0282E10E94870052
:100FA00083E10E9487008091B9008E7F8093B90011
:100FB0008091B9008D7F8093B90088E48093B80058
:100FC00085E48093BC0084EE90E090932B028093A4
:100FD0002A0285EE90E090932902809328021092D5
:100FE000EF028091F502823018F098E09093EF02C2
:100FF0008093F20262E370E080E090E00E941802C9
:101000006091F6028AEE92E00E94010368EE73E0BE
:1010100080E090E00E94180260E38AEE92E00E9475
:101020006903CBE4D6E4CE010197F1F760E38AEEE1
:1010300092E00E9469032197F1F760E38AEE92E063
:101040000E94690383E592E00197F1F760E28AEE7E
:1010500092E00E9469036091EF02606240E08AEED4
:1010600092E00E94820384E08093F00240E06CE012
:101070008AEE92E00E94820340E061E08AEE92E014
:101080000E9482038BE39FE10197F1F78091F302C5
:10109000882321F060E080E00E94990382E0809341
:1010A000F10240E066E08AEE92E00E94820340E0B6
:1010B00062E08AEE92E00E9482038BE39FE1019757
:1010C000F1F788E08093F60260E08AEE92E00E94F9
:1010D0000103C0E0D0E080913F029091400204976C
:1010E0000CF06FC00E94CE00BC01990F880B990BC9
:1010F0000E94620A2DEC3CEC4CE85FE30E94170B67
:1011000020E030E048EC52E40E94170B20E030EC85
:101110004FE754E40E94BF0960933B0270933C0286
:1011200080933D0290933E020E94CE006C01990F85
:10113000EE08FF082AE0B701A601F7FE0DC06DE238
:1011400081E492E00E94860144275527BA014C1998
:101150005D096E097F092AE081E492E00E94E103C3
:1011600020913702309138024091390250913A0271
:1011700060913B0270913C0280913D0290913E0251
:101180000E944E09609337027093380280933902AF
:1011900090933A0220E030E040E450E40E94BF091E
:1011A0006093330270933402809335029093360239
:1011B00080913F029091400201969093400280936B
:1011C0003F0280913F029091400203970CF45AC075
:1011D00065E471E081E492E00E94D2034091330221
:1011E00050913402609135027091360221E081E421
:1011F00092E00E942D0462E671E081E492E00E9498
:10120000D20367E671E081E492E00E94D20360E0DD
:1012100083E00E9499036AE671E08AEE92E00E9400
:10122000D20361E085E00E9499034091330250911E
:101230003402609135027091360221E08AEE92E02C
:101240000E942D0465E671E08AEE92E00E94D203CE
:10125000109233021092340210923502109236022C
:1012600010923702109238021092390210923A020C
:101270001092400210923F0268EB7BE080E090E029
:101280000E941802209709F426CF0E94500188235B
:1012900009F421CF0E9400001ECF5058BB27AA2777
:1012A0000E9465090C94D80A0E94CA0A38F00E946C
:1012B000D10A20F039F49F3F19F426F40C94C70AA0
:1012C0000EF4E095E7FB0C94C10AE92F0E94E90AAD
:1012D00058F3BA17620773078407950720F079F46B
:1012E000A6F50C940B0B0EF4E0950B2EBA2FA02D47
:1012F0000B01B90190010C01CA01A0011124FF27C3
:10130000591B99F0593F50F4503E68F11A16F040BD
:10131000A22F232F342F4427585FF3CF46953795BC
:101320002795A795F0405395C9F77EF41F16BA0B81
:10133000620B730B840BBAF09150A1F0FF0FBB1F2F
:10134000661F771F881FC2F70EC0BA0F621F731F78
:10135000841F48F4879577956795B795F7959E3FD5
:1013600008F0B0CF9395880F08F09927EE0F979566
:10137000879508950E949D0A08F481E008950E94CF
:10138000D3090C94D80A0E94D10A58F00E94CA0AC4
:1013900040F029F45F3F29F00C94C10A51110C94DC
:1013A0000C0B0C94C70A0E94E90A68F39923B1F365
:1013B000552391F3951B550BBB27AA27621773077B
:1013C000840738F09F5F5F4F220F331F441FAA1F0F
:1013D000A9F335D00E2E3AF0E0E832D091505040CB
:1013E000E695001CCAF72BD0FE2F29D0660F771F79
:1013F000881FBB1F261737074807AB07B0E809F05F
:10140000BB0B802DBF01FF2793585F4F3AF09E3FE3
:10141000510578F00C94C10A0C940C0B5F3FE4F377
:10142000983ED4F3869577956795B795F7959F5F26
:10143000C9F7880F911D9695879597F90895E1E072
:10144000660F771F881FBB1F621773078407BA07D1
:1014500020F0621B730B840BBA0BEE1F88F7E0952C
:1014600008950E94F10A88F09F5798F0B92F9927A4
:10147000B751B0F0E1F0660F771F881F991F1AF07F
:10148000BA95C9F714C0B13091F00E940B0BB1E0CE
:1014900008950C940B0B672F782F8827B85F39F0CD
:1014A000B93FCCF3869577956795B395D9F73EF418
:1014B00090958095709561957F4F8F4F9F4F0895C0
:1014C000E89409C097FB3EF49095809570956195DE
:1014D0007F4F8F4F9F4F9923A9F0F92F96E9BB2794
:1014E0009395F695879577956795B795F111F8CF10
:1014F000FAF4BB0F11F460FF1BC06F5F7F4F8F4F7B
:101500009F4F16C0882311F096E911C0772321F070
:101510009EE8872F762F05C0662371F096E8862F08
:1015200070E060E02AF09A95660F771F881FDAF75F
:10153000880F9695879597F90895990F0008550F8C
:10154000AA0BE0E8FEEF16161706E807F907C0F049
:1015500012161306E407F50798F0621B730B840B51
:10156000950B39F40A2661F0232B242B252B21F42B
:1015700008950A2609F4A140A6958FEF811D811DCB
:10158000089597F99F6780E870E060E008959FEF05
:1015900080EC089500240A9416161706180609060A
:1015A000089500240A9412161306140605060895D9
:1015B000092E0394000C11F4882352F0BB0F40F461
:1015C000BF2B11F460FF04C06F5F7F4F8F4F9F4FA1
:1015D000089557FD9058440F551F59F05F3F71F023
:1015E0004795880F97FB991F61F09F3F79F087958A
:1015F0000895121613061406551FF2CF4695F1DF13
:1016000008C0161617061806991FF1CF86957105A2
:10161000610508940895E894BB2766277727CB01D6
:1016200097F908950E949D0A08F48FEF08950E948B
:101630002A0B0C94D80A0E94CA0A38F00E94D10AD8
:1016400020F0952311F00C94C10A0C94C70A1124C0
:101650000C940C0B0E94E90A70F3959FC1F3950F4F
:1016600050E0551F629FF001729FBB27F00DB11D26
:10167000639FAA27F00DB11DAA1F649F6627B00DB6
:10168000A11D661F829F2227B00DA11D621F739F9F
:10169000B00DA11D621F839FA00D611D221F749FAD
:1016A0003327A00D611D231F849F600D211D822FF4
:1016B000762F6A2F11249F5750409AF0F1F088231B
:1016C0004AF0EE0FFF1FBB1F661F771F881F915048
:1016D0005040A9F79E3F510580F00C94C10A0C942C
:1016E0000C0B5F3FE4F3983ED4F3869577956795AE
:1016F000B795F795E7959F5FC1F7FE2B880F911D72
:101700009695879597F908950E949D0A880B990BE5
:101710000895A1E21A2EAA1BBB1BFD010DC0AA1F32
:10172000BB1FEE1FFF1FA217B307E407F50720F04A
:10173000A21BB30BE40BF50B661F771F881F991FC5
:101740001A9469F760957095809590959B01AC010E
:10175000BD01CF010895EE0FFF1F0590F491E02D1C
:061760000994F894FFCF8C
:10176600010000400014005400000000008601E65D
:10177600001301D30144012201360100000000D20A
:1017860002A50266037B029E028B027C0200000019
:1017960000CC03E600660365036E616E00696E6643
:1017A600006F7666004C612074656D7065726174B9
:1017B6007572612070726F6D6564696F2065733A2A
:1017C600200020C2B043000D0A0053656E736F728D
:0617D600204C4D333500EC
:00000001FF
